{
  "contractName": "Player",
  "abi": [
    {
      "inputs": [
        {
          "internalType": "address",
          "name": "_payToken",
          "type": "address"
        },
        {
          "internalType": "address",
          "name": "_rewardToken",
          "type": "address"
        }
      ],
      "stateMutability": "nonpayable",
      "type": "constructor"
    },
    {
      "anonymous": false,
      "inputs": [
        {
          "indexed": true,
          "internalType": "address",
          "name": "account",
          "type": "address"
        },
        {
          "indexed": true,
          "internalType": "address",
          "name": "operator",
          "type": "address"
        },
        {
          "indexed": false,
          "internalType": "bool",
          "name": "approved",
          "type": "bool"
        }
      ],
      "name": "ApprovalForAll",
      "type": "event"
    },
    {
      "anonymous": false,
      "inputs": [
        {
          "indexed": true,
          "internalType": "address",
          "name": "operator",
          "type": "address"
        },
        {
          "indexed": true,
          "internalType": "address",
          "name": "from",
          "type": "address"
        },
        {
          "indexed": true,
          "internalType": "address",
          "name": "to",
          "type": "address"
        },
        {
          "indexed": false,
          "internalType": "uint256[]",
          "name": "ids",
          "type": "uint256[]"
        },
        {
          "indexed": false,
          "internalType": "uint256[]",
          "name": "values",
          "type": "uint256[]"
        }
      ],
      "name": "TransferBatch",
      "type": "event"
    },
    {
      "anonymous": false,
      "inputs": [
        {
          "indexed": true,
          "internalType": "address",
          "name": "operator",
          "type": "address"
        },
        {
          "indexed": true,
          "internalType": "address",
          "name": "from",
          "type": "address"
        },
        {
          "indexed": true,
          "internalType": "address",
          "name": "to",
          "type": "address"
        },
        {
          "indexed": false,
          "internalType": "uint256",
          "name": "id",
          "type": "uint256"
        },
        {
          "indexed": false,
          "internalType": "uint256",
          "name": "value",
          "type": "uint256"
        }
      ],
      "name": "TransferSingle",
      "type": "event"
    },
    {
      "anonymous": false,
      "inputs": [
        {
          "indexed": false,
          "internalType": "string",
          "name": "value",
          "type": "string"
        },
        {
          "indexed": true,
          "internalType": "uint256",
          "name": "id",
          "type": "uint256"
        }
      ],
      "name": "URI",
      "type": "event"
    },
    {
      "anonymous": false,
      "inputs": [
        {
          "indexed": false,
          "internalType": "address",
          "name": "sender",
          "type": "address"
        }
      ],
      "name": "activation",
      "type": "event"
    },
    {
      "anonymous": false,
      "inputs": [
        {
          "indexed": false,
          "internalType": "address",
          "name": "sender",
          "type": "address"
        },
        {
          "indexed": false,
          "internalType": "uint256",
          "name": "burned",
          "type": "uint256"
        }
      ],
      "name": "charged",
      "type": "event"
    },
    {
      "anonymous": false,
      "inputs": [
        {
          "indexed": false,
          "internalType": "address",
          "name": "sender",
          "type": "address"
        },
        {
          "indexed": false,
          "internalType": "uint256",
          "name": "rewardClaimed",
          "type": "uint256"
        }
      ],
      "name": "claimed",
      "type": "event"
    },
    {
      "anonymous": false,
      "inputs": [
        {
          "indexed": false,
          "internalType": "address",
          "name": "sender",
          "type": "address"
        },
        {
          "indexed": false,
          "internalType": "string",
          "name": "class",
          "type": "string"
        }
      ],
      "name": "gettingMembership",
      "type": "event"
    },
    {
      "anonymous": false,
      "inputs": [
        {
          "indexed": false,
          "internalType": "address",
          "name": "sender",
          "type": "address"
        }
      ],
      "name": "reActivation",
      "type": "event"
    },
    {
      "anonymous": false,
      "inputs": [
        {
          "indexed": false,
          "internalType": "address",
          "name": "sender",
          "type": "address"
        }
      ],
      "name": "retrievingFund",
      "type": "event"
    },
    {
      "inputs": [
        {
          "internalType": "address",
          "name": "account",
          "type": "address"
        },
        {
          "internalType": "uint256",
          "name": "id",
          "type": "uint256"
        }
      ],
      "name": "balanceOf",
      "outputs": [
        {
          "internalType": "uint256",
          "name": "",
          "type": "uint256"
        }
      ],
      "stateMutability": "view",
      "type": "function",
      "constant": true
    },
    {
      "inputs": [
        {
          "internalType": "address[]",
          "name": "accounts",
          "type": "address[]"
        },
        {
          "internalType": "uint256[]",
          "name": "ids",
          "type": "uint256[]"
        }
      ],
      "name": "balanceOfBatch",
      "outputs": [
        {
          "internalType": "uint256[]",
          "name": "",
          "type": "uint256[]"
        }
      ],
      "stateMutability": "view",
      "type": "function",
      "constant": true
    },
    {
      "inputs": [
        {
          "internalType": "address",
          "name": "",
          "type": "address"
        }
      ],
      "name": "battery",
      "outputs": [
        {
          "internalType": "uint256",
          "name": "",
          "type": "uint256"
        }
      ],
      "stateMutability": "view",
      "type": "function",
      "constant": true
    },
    {
      "inputs": [
        {
          "internalType": "address",
          "name": "account",
          "type": "address"
        },
        {
          "internalType": "address",
          "name": "operator",
          "type": "address"
        }
      ],
      "name": "isApprovedForAll",
      "outputs": [
        {
          "internalType": "bool",
          "name": "",
          "type": "bool"
        }
      ],
      "stateMutability": "view",
      "type": "function",
      "constant": true
    },
    {
      "inputs": [
        {
          "internalType": "address",
          "name": "",
          "type": "address"
        },
        {
          "internalType": "uint256",
          "name": "",
          "type": "uint256"
        }
      ],
      "name": "memberPlan",
      "outputs": [
        {
          "internalType": "bool",
          "name": "",
          "type": "bool"
        }
      ],
      "stateMutability": "view",
      "type": "function",
      "constant": true
    },
    {
      "inputs": [
        {
          "internalType": "address",
          "name": "",
          "type": "address"
        }
      ],
      "name": "nextclaimTime",
      "outputs": [
        {
          "internalType": "uint256",
          "name": "",
          "type": "uint256"
        }
      ],
      "stateMutability": "view",
      "type": "function",
      "constant": true
    },
    {
      "inputs": [
        {
          "internalType": "address",
          "name": "from",
          "type": "address"
        },
        {
          "internalType": "address",
          "name": "to",
          "type": "address"
        },
        {
          "internalType": "uint256[]",
          "name": "ids",
          "type": "uint256[]"
        },
        {
          "internalType": "uint256[]",
          "name": "amounts",
          "type": "uint256[]"
        },
        {
          "internalType": "bytes",
          "name": "data",
          "type": "bytes"
        }
      ],
      "name": "safeBatchTransferFrom",
      "outputs": [],
      "stateMutability": "nonpayable",
      "type": "function"
    },
    {
      "inputs": [
        {
          "internalType": "address",
          "name": "from",
          "type": "address"
        },
        {
          "internalType": "address",
          "name": "to",
          "type": "address"
        },
        {
          "internalType": "uint256",
          "name": "id",
          "type": "uint256"
        },
        {
          "internalType": "uint256",
          "name": "amount",
          "type": "uint256"
        },
        {
          "internalType": "bytes",
          "name": "data",
          "type": "bytes"
        }
      ],
      "name": "safeTransferFrom",
      "outputs": [],
      "stateMutability": "nonpayable",
      "type": "function"
    },
    {
      "inputs": [
        {
          "internalType": "address",
          "name": "operator",
          "type": "address"
        },
        {
          "internalType": "bool",
          "name": "approved",
          "type": "bool"
        }
      ],
      "name": "setApprovalForAll",
      "outputs": [],
      "stateMutability": "nonpayable",
      "type": "function"
    },
    {
      "inputs": [
        {
          "internalType": "bytes4",
          "name": "interfaceId",
          "type": "bytes4"
        }
      ],
      "name": "supportsInterface",
      "outputs": [
        {
          "internalType": "bool",
          "name": "",
          "type": "bool"
        }
      ],
      "stateMutability": "view",
      "type": "function",
      "constant": true
    },
    {
      "inputs": [
        {
          "internalType": "address",
          "name": "",
          "type": "address"
        }
      ],
      "name": "unlockTime",
      "outputs": [
        {
          "internalType": "uint256",
          "name": "",
          "type": "uint256"
        }
      ],
      "stateMutability": "view",
      "type": "function",
      "constant": true
    },
    {
      "inputs": [
        {
          "internalType": "uint256",
          "name": "",
          "type": "uint256"
        }
      ],
      "name": "uri",
      "outputs": [
        {
          "internalType": "string",
          "name": "",
          "type": "string"
        }
      ],
      "stateMutability": "view",
      "type": "function",
      "constant": true
    },
    {
      "inputs": [
        {
          "internalType": "address",
          "name": "",
          "type": "address"
        }
      ],
      "name": "userActivated",
      "outputs": [
        {
          "internalType": "bool",
          "name": "",
          "type": "bool"
        }
      ],
      "stateMutability": "view",
      "type": "function",
      "constant": true
    },
    {
      "inputs": [
        {
          "internalType": "address",
          "name": "",
          "type": "address"
        }
      ],
      "name": "userActivatedOnced",
      "outputs": [
        {
          "internalType": "bool",
          "name": "",
          "type": "bool"
        }
      ],
      "stateMutability": "view",
      "type": "function",
      "constant": true
    },
    {
      "inputs": [],
      "name": "activate",
      "outputs": [],
      "stateMutability": "nonpayable",
      "type": "function"
    },
    {
      "inputs": [],
      "name": "reActivate",
      "outputs": [],
      "stateMutability": "nonpayable",
      "type": "function"
    },
    {
      "inputs": [],
      "name": "getMembership",
      "outputs": [],
      "stateMutability": "payable",
      "type": "function",
      "payable": true
    },
    {
      "inputs": [],
      "name": "reward",
      "outputs": [],
      "stateMutability": "nonpayable",
      "type": "function"
    },
    {
      "inputs": [],
      "name": "charge",
      "outputs": [],
      "stateMutability": "nonpayable",
      "type": "function"
    },
    {
      "inputs": [],
      "name": "retrieveFund",
      "outputs": [],
      "stateMutability": "nonpayable",
      "type": "function"
    }
  ],
  "bytecode": "0x6080604052686c6b935b8bbd4000006009556729a2241af62c0000600a55674563918244f40000600b55676124fee993bc0000600c553480156200004257600080fd5b5060405162005d6738038062005d678339818101604052810190620000689190620007de565b60405180602001604052806000815250620000928162000179640100000000026401000000009004565b50620000c130600060646040518060200160405280600081525062000195640100000000026401000000009004565b620000ef30600160646040518060200160405280600081525062000195640100000000026401000000009004565b81600d60006101000a81548173ffffffffffffffffffffffffffffffffffffffff021916908373ffffffffffffffffffffffffffffffffffffffff16021790555080600e60006101000a81548173ffffffffffffffffffffffffffffffffffffffff021916908373ffffffffffffffffffffffffffffffffffffffff160217905550505062000ed3565b806002908051906020019062000191929190620006ba565b5050565b600073ffffffffffffffffffffffffffffffffffffffff168473ffffffffffffffffffffffffffffffffffffffff16141562000208576040517f08c379a0000000000000000000000000000000000000000000000000000000008152600401620001ff90620008ac565b60405180910390fd5b600062000223620003b3640100000000026401000000009004565b905060006200024185620003bb640100000000026401000000009004565b905060006200025f85620003bb640100000000026401000000009004565b905062000281836000898585896200043c640100000000026401000000009004565b8460008088815260200190815260200160002060008973ffffffffffffffffffffffffffffffffffffffff1673ffffffffffffffffffffffffffffffffffffffff1681526020019081526020016000206000828254620002e2919062000907565b925050819055508673ffffffffffffffffffffffffffffffffffffffff16600073ffffffffffffffffffffffffffffffffffffffff168473ffffffffffffffffffffffffffffffffffffffff167fc3d58168c5ae7397731d063d5bbf3d657854427343f4c083240f7aacaa2d0f6289896040516200036292919062000975565b60405180910390a46200038a8360008985858962000444640100000000026401000000009004565b620003aa836000898989896200044c640100000000026401000000009004565b50505050505050565b600033905090565b60606000600167ffffffffffffffff811115620003dd57620003dc620009a2565b5b6040519080825280602002602001820160405280156200040c5781602001602082028036833780820191505090505b5090508281600081518110620004275762000426620009d1565b5b60200260200101818152505080915050919050565b505050505050565b505050505050565b620004818473ffffffffffffffffffffffffffffffffffffffff16620006976401000000000262002a38176401000000009004565b156200068f578373ffffffffffffffffffffffffffffffffffffffff1663f23a6e6187878686866040518663ffffffff167c0100000000000000000000000000000000000000000000000000000000028152600401620004e695949392919062000ab5565b602060405180830381600087803b1580156200050157600080fd5b505af19250505080156200053557506040513d601f19601f8201168201806040525081019062000532919062000b76565b60015b620005e7576200054462000bd1565b806308c379a01415620005a857506200055c62000c2c565b80620005695750620005aa565b806040517f08c379a00000000000000000000000000000000000000000000000000000000081526004016200059f919062000d1a565b60405180910390fd5b505b6040517f08c379a0000000000000000000000000000000000000000000000000000000008152600401620005de9062000db4565b60405180910390fd5b63f23a6e617c0100000000000000000000000000000000000000000000000000000000027bffffffffffffffffffffffffffffffffffffffffffffffffffffffff1916817bffffffffffffffffffffffffffffffffffffffffffffffffffffffff1916146200068d576040517f08c379a0000000000000000000000000000000000000000000000000000000008152600401620006849062000e4c565b60405180910390fd5b505b505050505050565b6000808273ffffffffffffffffffffffffffffffffffffffff163b119050919050565b828054620006c89062000e9d565b90600052602060002090601f016020900481019282620006ec576000855562000738565b82601f106200070757805160ff191683800117855562000738565b8280016001018555821562000738579182015b82811115620007375782518255916020019190600101906200071a565b5b5090506200074791906200074b565b5090565b5b80821115620007665760008160009055506001016200074c565b5090565b6000604051905090565b600080fd5b600073ffffffffffffffffffffffffffffffffffffffff82169050919050565b6000620007a68262000779565b9050919050565b620007b88162000799565b8114620007c457600080fd5b50565b600081519050620007d881620007ad565b92915050565b60008060408385031215620007f857620007f762000774565b5b60006200080885828601620007c7565b92505060206200081b85828601620007c7565b9150509250929050565b600082825260208201905092915050565b7f455243313135353a206d696e7420746f20746865207a65726f2061646472657360008201527f7300000000000000000000000000000000000000000000000000000000000000602082015250565b60006200089460218362000825565b9150620008a18262000836565b604082019050919050565b60006020820190508181036000830152620008c78162000885565b9050919050565b6000819050919050565b7f4e487b7100000000000000000000000000000000000000000000000000000000600052601160045260246000fd5b60006200091482620008ce565b91506200092183620008ce565b9250827fffffffffffffffffffffffffffffffffffffffffffffffffffffffffffffffff03821115620009595762000958620008d8565b5b828201905092915050565b6200096f81620008ce565b82525050565b60006040820190506200098c600083018562000964565b6200099b602083018462000964565b9392505050565b7f4e487b7100000000000000000000000000000000000000000000000000000000600052604160045260246000fd5b7f4e487b7100000000000000000000000000000000000000000000000000000000600052603260045260246000fd5b62000a0b8162000799565b82525050565b600081519050919050565b600082825260208201905092915050565b60005b8381101562000a4d57808201518184015260208101905062000a30565b8381111562000a5d576000848401525b50505050565b6000601f19601f8301169050919050565b600062000a818262000a11565b62000a8d818562000a1c565b935062000a9f81856020860162000a2d565b62000aaa8162000a63565b840191505092915050565b600060a08201905062000acc600083018862000a00565b62000adb602083018762000a00565b62000aea604083018662000964565b62000af9606083018562000964565b818103608083015262000b0d818462000a74565b90509695505050505050565b60007fffffffff0000000000000000000000000000000000000000000000000000000082169050919050565b62000b508162000b19565b811462000b5c57600080fd5b50565b60008151905062000b708162000b45565b92915050565b60006020828403121562000b8f5762000b8e62000774565b5b600062000b9f8482850162000b5f565b91505092915050565b60007c010000000000000000000000000000000000000000000000000000000082049050919050565b600060033d111562000bf35760046000803e62000bf060005162000ba8565b90505b90565b62000c018262000a63565b810181811067ffffffffffffffff8211171562000c235762000c22620009a2565b5b80604052505050565b600060443d101562000c3e5762000ccb565b62000c486200076a565b60043d036004823e80513d602482011167ffffffffffffffff8211171562000c7257505062000ccb565b808201805167ffffffffffffffff81111562000c92575050505062000ccb565b80602083010160043d03850181111562000cb157505050505062000ccb565b62000cc28260200185018662000bf6565b82955050505050505b90565b600081519050919050565b600062000ce68262000cce565b62000cf2818562000825565b935062000d0481856020860162000a2d565b62000d0f8162000a63565b840191505092915050565b6000602082019050818103600083015262000d36818462000cd9565b905092915050565b7f455243313135353a207472616e7366657220746f206e6f6e2d4552433131353560008201527f526563656976657220696d706c656d656e746572000000000000000000000000602082015250565b600062000d9c60348362000825565b915062000da98262000d3e565b604082019050919050565b6000602082019050818103600083015262000dcf8162000d8d565b9050919050565b7f455243313135353a204552433131353552656365697665722072656a6563746560008201527f6420746f6b656e73000000000000000000000000000000000000000000000000602082015250565b600062000e3460288362000825565b915062000e418262000dd6565b604082019050919050565b6000602082019050818103600083015262000e678162000e25565b9050919050565b7f4e487b7100000000000000000000000000000000000000000000000000000000600052602260045260246000fd5b6000600282049050600182168062000eb657607f821691505b6020821081141562000ecd5762000ecc62000e6e565b5b50919050565b614e848062000ee36000396000f3fe60806040526004361061013b576000357c0100000000000000000000000000000000000000000000000000000000900480633f78b79e116100bd578063a22cb46511610081578063a22cb46514610427578063abb88bcc14610450578063e985e9c51461045a578063ee37811c14610497578063f242432a146104ae5761013b565b80633f78b79e1461031c5780634e1273f414610359578063551619131461039657806376b467b7146103ad578063886d9eda146103ea5761013b565b80631a514d97116101045780631a514d971461024b578063228cb7331461026257806327926b591461027957806328bb6d54146102b65780632eb2c2d6146102f35761013b565b8062fdd58e1461014057806301ffc9a71461017d5780630e89341c146101ba5780630f15f4c0146101f75780631664586c1461020e575b600080fd5b34801561014c57600080fd5b5061016760048036038101906101629190613768565b6104d7565b60405161017491906137b7565b60405180910390f35b34801561018957600080fd5b506101a4600480360381019061019f919061382a565b6105a0565b6040516101b19190613872565b60405180910390f35b3480156101c657600080fd5b506101e160048036038101906101dc919061388d565b610682565b6040516101ee9190613953565b60405180910390f35b34801561020357600080fd5b5061020c610716565b005b34801561021a57600080fd5b5061023560048036038101906102309190613975565b610aee565b60405161024291906137b7565b60405180910390f35b34801561025757600080fd5b50610260610b06565b005b34801561026e57600080fd5b50610277610d5e565b005b34801561028557600080fd5b506102a0600480360381019061029b9190613975565b6113a9565b6040516102ad9190613872565b60405180910390f35b3480156102c257600080fd5b506102dd60048036038101906102d89190613975565b6113c9565b6040516102ea9190613872565b60405180910390f35b3480156102ff57600080fd5b5061031a60048036038101906103159190613b9f565b6113e9565b005b34801561032857600080fd5b50610343600480360381019061033e9190613768565b61148a565b6040516103509190613872565b60405180910390f35b34801561036557600080fd5b50610380600480360381019061037b9190613d31565b6114b9565b60405161038d9190613e67565b60405180910390f35b3480156103a257600080fd5b506103ab6115d2565b005b3480156103b957600080fd5b506103d460048036038101906103cf9190613975565b611fdf565b6040516103e191906137b7565b60405180910390f35b3480156103f657600080fd5b50610411600480360381019061040c9190613975565b611ff7565b60405161041e91906137b7565b60405180910390f35b34801561043357600080fd5b5061044e60048036038101906104499190613eb5565b61200f565b005b610458612025565b005b34801561046657600080fd5b50610481600480360381019061047c9190613ef5565b6125e8565b60405161048e9190613872565b60405180910390f35b3480156104a357600080fd5b506104ac61267c565b005b3480156104ba57600080fd5b506104d560048036038101906104d09190613f35565b612997565b005b60008073ffffffffffffffffffffffffffffffffffffffff168373ffffffffffffffffffffffffffffffffffffffff161415610548576040517f08c379a000000000000000000000000000000000000000000000000000000000815260040161053f9061403e565b60405180910390fd5b60008083815260200190815260200160002060008473ffffffffffffffffffffffffffffffffffffffff1673ffffffffffffffffffffffffffffffffffffffff16815260200190815260200160002054905092915050565b60007fd9b67a26000000000000000000000000000000000000000000000000000000007bffffffffffffffffffffffffffffffffffffffffffffffffffffffff1916827bffffffffffffffffffffffffffffffffffffffffffffffffffffffff1916148061066b57507f0e89341c000000000000000000000000000000000000000000000000000000007bffffffffffffffffffffffffffffffffffffffffffffffffffffffff1916827bffffffffffffffffffffffffffffffffffffffffffffffffffffffff1916145b8061067b575061067a82612a5b565b5b9050919050565b6060600280546106919061408d565b80601f01602080910402602001604051908101604052809291908181526020018280546106bd9061408d565b801561070a5780601f106106df5761010080835404028352916020019161070a565b820191906000526020600020905b8154815290600101906020018083116106ed57829003601f168201915b50505050509050919050565b600d60009054906101000a900473ffffffffffffffffffffffffffffffffffffffff1673ffffffffffffffffffffffffffffffffffffffff166323b872dd33306009546040518463ffffffff167c0100000000000000000000000000000000000000000000000000000000028152600401610793939291906140ce565b602060405180830381600087803b1580156107ad57600080fd5b505af11580156107c1573d6000803e3d6000fd5b505050506040513d601f19601f820116820180604052508101906107e5919061411a565b610824576040517f08c379a000000000000000000000000000000000000000000000000000000000815260040161081b90614193565b60405180910390fd5b60001515600360003373ffffffffffffffffffffffffffffffffffffffff1673ffffffffffffffffffffffffffffffffffffffff16815260200190815260200160002060009054906101000a900460ff161515146108b7576040517f08c379a00000000000000000000000000000000000000000000000000000000081526004016108ae906141ff565b60405180910390fd5b6001600360003373ffffffffffffffffffffffffffffffffffffffff1673ffffffffffffffffffffffffffffffffffffffff16815260200190815260200160002060006101000a81548160ff0219169083151502179055506001600460003373ffffffffffffffffffffffffffffffffffffffff1673ffffffffffffffffffffffffffffffffffffffff16815260200190815260200160002060006101000a81548160ff0219169083151502179055506001600560003373ffffffffffffffffffffffffffffffffffffffff1673ffffffffffffffffffffffffffffffffffffffff168152602001908152602001600020600080815260200190815260200160002060006101000a81548160ff021916908315150217905550603c426109dd919061424e565b600760003373ffffffffffffffffffffffffffffffffffffffff1673ffffffffffffffffffffffffffffffffffffffff168152602001908152602001600020819055506003600660003373ffffffffffffffffffffffffffffffffffffffff1673ffffffffffffffffffffffffffffffffffffffff16815260200190815260200160002081905550601e42610a72919061424e565b600860003373ffffffffffffffffffffffffffffffffffffffff1673ffffffffffffffffffffffffffffffffffffffff168152602001908152602001600020819055507f4aacab954a66065a264e7b58da0901f50e912ebd7020220f133d5e170c22394f33604051610ae491906142a4565b60405180910390a1565b60066020528060005260406000206000915090505481565b600d60009054906101000a900473ffffffffffffffffffffffffffffffffffffffff1673ffffffffffffffffffffffffffffffffffffffff166323b872dd33306009546040518463ffffffff167c0100000000000000000000000000000000000000000000000000000000028152600401610b83939291906140ce565b602060405180830381600087803b158015610b9d57600080fd5b505af1158015610bb1573d6000803e3d6000fd5b505050506040513d601f19601f82011682018060405250810190610bd5919061411a565b610c14576040517f08c379a0000000000000000000000000000000000000000000000000000000008152600401610c0b90614193565b60405180910390fd5b6001600460003373ffffffffffffffffffffffffffffffffffffffff1673ffffffffffffffffffffffffffffffffffffffff16815260200190815260200160002060006101000a81548160ff0219169083151502179055506001600560003373ffffffffffffffffffffffffffffffffffffffff1673ffffffffffffffffffffffffffffffffffffffff168152602001908152602001600020600080815260200190815260200160002060006101000a81548160ff021916908315150217905550601e42610ce2919061424e565b600760003373ffffffffffffffffffffffffffffffffffffffff1673ffffffffffffffffffffffffffffffffffffffff168152602001908152602001600020819055507f36b0a03b7d43349f1585da8062872980d8f12a5e0459e3859c373714fbf02a5733604051610d5491906142a4565b60405180910390a1565b60011515600460003373ffffffffffffffffffffffffffffffffffffffff1673ffffffffffffffffffffffffffffffffffffffff16815260200190815260200160002060009054906101000a900460ff16151514610df1576040517f08c379a0000000000000000000000000000000000000000000000000000000008152600401610de89061430b565b60405180910390fd5b42600860003373ffffffffffffffffffffffffffffffffffffffff1673ffffffffffffffffffffffffffffffffffffffff168152602001908152602001600020541115610e73576040517f08c379a0000000000000000000000000000000000000000000000000000000008152600401610e6a90614377565b60405180910390fd5b6000600660003373ffffffffffffffffffffffffffffffffffffffff1673ffffffffffffffffffffffffffffffffffffffff1681526020019081526020016000205411610ef5576040517f08c379a0000000000000000000000000000000000000000000000000000000008152600401610eec906143e3565b60405180910390fd5b600060011515600560003373ffffffffffffffffffffffffffffffffffffffff1673ffffffffffffffffffffffffffffffffffffffff16815260200190815260200160002060006002815260200190815260200160002060009054906101000a900460ff161515141561103a57600e60009054906101000a900473ffffffffffffffffffffffffffffffffffffffff1673ffffffffffffffffffffffffffffffffffffffff1663a9059cbb33600c546040518363ffffffff167c0100000000000000000000000000000000000000000000000000000000028152600401610fdd929190614403565b602060405180830381600087803b158015610ff757600080fd5b505af115801561100b573d6000803e3d6000fd5b505050506040513d601f19601f8201168201806040525081019061102f919061411a565b50600c5490506112c6565b60011515600560003373ffffffffffffffffffffffffffffffffffffffff1673ffffffffffffffffffffffffffffffffffffffff16815260200190815260200160002060006001815260200190815260200160002060009054906101000a900460ff161515141561117d57600e60009054906101000a900473ffffffffffffffffffffffffffffffffffffffff1673ffffffffffffffffffffffffffffffffffffffff1663a9059cbb33600b546040518363ffffffff167c0100000000000000000000000000000000000000000000000000000000028152600401611120929190614403565b602060405180830381600087803b15801561113a57600080fd5b505af115801561114e573d6000803e3d6000fd5b505050506040513d601f19601f82011682018060405250810190611172919061411a565b50600b5490506112c5565b60011515600560003373ffffffffffffffffffffffffffffffffffffffff1673ffffffffffffffffffffffffffffffffffffffff168152602001908152602001600020600080815260200190815260200160002060009054906101000a900460ff16151514156112bf57600e60009054906101000a900473ffffffffffffffffffffffffffffffffffffffff1673ffffffffffffffffffffffffffffffffffffffff1663a9059cbb33600a546040518363ffffffff167c0100000000000000000000000000000000000000000000000000000000028152600401611262929190614403565b602060405180830381600087803b15801561127c57600080fd5b505af1158015611290573d6000803e3d6000fd5b505050506040513d601f19601f820116820180604052508101906112b4919061411a565b50600a5490506112c4565b600080fd5b5b5b6001600660003373ffffffffffffffffffffffffffffffffffffffff1673ffffffffffffffffffffffffffffffffffffffff1681526020019081526020016000206000828254611316919061442c565b92505081905550603c4261132a919061424e565b600860003373ffffffffffffffffffffffffffffffffffffffff1673ffffffffffffffffffffffffffffffffffffffff168152602001908152602001600020819055507f4dd6c8de072db5939c4dc757de920d64bcbef063a41150ae51deb4f125032ddf338260405161139e929190614403565b60405180910390a150565b60036020528060005260406000206000915054906101000a900460ff1681565b60046020528060005260406000206000915054906101000a900460ff1681565b6113f1612ac5565b73ffffffffffffffffffffffffffffffffffffffff168573ffffffffffffffffffffffffffffffffffffffff161480611437575061143685611431612ac5565b6125e8565b5b611476576040517f08c379a000000000000000000000000000000000000000000000000000000000815260040161146d906144d2565b60405180910390fd5b6114838585858585612acd565b5050505050565b60056020528160005260406000206020528060005260406000206000915091509054906101000a900460ff1681565b606081518351146114ff576040517f08c379a00000000000000000000000000000000000000000000000000000000081526004016114f690614564565b60405180910390fd5b6000835167ffffffffffffffff81111561151c5761151b6139a7565b5b60405190808252806020026020018201604052801561154a5781602001602082028036833780820191505090505b50905060005b84518110156115c75761159785828151811061156f5761156e614584565b5b602002602001015185838151811061158a57611589614584565b5b60200260200101516104d7565b8282815181106115aa576115a9614584565b5b602002602001018181525050806115c0906145b3565b9050611550565b508091505092915050565b60011515600460003373ffffffffffffffffffffffffffffffffffffffff1673ffffffffffffffffffffffffffffffffffffffff16815260200190815260200160002060009054906101000a900460ff16151514611665576040517f08c379a000000000000000000000000000000000000000000000000000000000815260040161165c9061430b565b60405180910390fd5b6000600660003373ffffffffffffffffffffffffffffffffffffffff1673ffffffffffffffffffffffffffffffffffffffff16815260200190815260200160002054146116e7576040517f08c379a00000000000000000000000000000000000000000000000000000000081526004016116de90614648565b60405180910390fd5b60011515600560003373ffffffffffffffffffffffffffffffffffffffff1673ffffffffffffffffffffffffffffffffffffffff16815260200190815260200160002060006002815260200190815260200160002060009054906101000a900460ff16151514156119ce57600e60009054906101000a900473ffffffffffffffffffffffffffffffffffffffff1673ffffffffffffffffffffffffffffffffffffffff166323b872dd3330600c546040518463ffffffff167c01000000000000000000000000000000000000000000000000000000000281526004016117cf939291906140ce565b602060405180830381600087803b1580156117e957600080fd5b505af11580156117fd573d6000803e3d6000fd5b505050506040513d601f19601f82011682018060405250810190611821919061411a565b611860576040517f08c379a000000000000000000000000000000000000000000000000000000000815260040161185790614193565b60405180910390fd5b600e60009054906101000a900473ffffffffffffffffffffffffffffffffffffffff1673ffffffffffffffffffffffffffffffffffffffff16638d96331b600c546040518263ffffffff167c01000000000000000000000000000000000000000000000000000000000281526004016118d991906137b7565b602060405180830381600087803b1580156118f357600080fd5b505af1158015611907573d6000803e3d6000fd5b505050506040513d601f19601f8201168201806040525081019061192b919061411a565b61196a576040517f08c379a00000000000000000000000000000000000000000000000000000000081526004016119619061468e565b60405180910390fd5b6007600660003373ffffffffffffffffffffffffffffffffffffffff1673ffffffffffffffffffffffffffffffffffffffff168152602001908152602001600020819055506007600f60008282546119c2919061424e565b92505081905550611fa2565b60011515600560003373ffffffffffffffffffffffffffffffffffffffff1673ffffffffffffffffffffffffffffffffffffffff16815260200190815260200160002060006001815260200190815260200160002060009054906101000a900460ff1615151415611cb557600e60009054906101000a900473ffffffffffffffffffffffffffffffffffffffff1673ffffffffffffffffffffffffffffffffffffffff166323b872dd3330600b546040518463ffffffff167c0100000000000000000000000000000000000000000000000000000000028152600401611ab6939291906140ce565b602060405180830381600087803b158015611ad057600080fd5b505af1158015611ae4573d6000803e3d6000fd5b505050506040513d601f19601f82011682018060405250810190611b08919061411a565b611b47576040517f08c379a0000000000000000000000000000000000000000000000000000000008152600401611b3e90614193565b60405180910390fd5b600e60009054906101000a900473ffffffffffffffffffffffffffffffffffffffff1673ffffffffffffffffffffffffffffffffffffffff16638d96331b600b546040518263ffffffff167c0100000000000000000000000000000000000000000000000000000000028152600401611bc091906137b7565b602060405180830381600087803b158015611bda57600080fd5b505af1158015611bee573d6000803e3d6000fd5b505050506040513d601f19601f82011682018060405250810190611c12919061411a565b611c51576040517f08c379a0000000000000000000000000000000000000000000000000000000008152600401611c489061468e565b60405180910390fd5b6005600660003373ffffffffffffffffffffffffffffffffffffffff1673ffffffffffffffffffffffffffffffffffffffff168152602001908152602001600020819055506005600f6000828254611ca9919061424e565b92505081905550611fa1565b60011515600560003373ffffffffffffffffffffffffffffffffffffffff1673ffffffffffffffffffffffffffffffffffffffff168152602001908152602001600020600080815260200190815260200160002060009054906101000a900460ff1615151415611f9b57600e60009054906101000a900473ffffffffffffffffffffffffffffffffffffffff1673ffffffffffffffffffffffffffffffffffffffff166323b872dd3330600a546040518463ffffffff167c0100000000000000000000000000000000000000000000000000000000028152600401611d9c939291906140ce565b602060405180830381600087803b158015611db657600080fd5b505af1158015611dca573d6000803e3d6000fd5b505050506040513d601f19601f82011682018060405250810190611dee919061411a565b611e2d576040517f08c379a0000000000000000000000000000000000000000000000000000000008152600401611e2490614193565b60405180910390fd5b600e60009054906101000a900473ffffffffffffffffffffffffffffffffffffffff1673ffffffffffffffffffffffffffffffffffffffff16638d96331b600a546040518263ffffffff167c0100000000000000000000000000000000000000000000000000000000028152600401611ea691906137b7565b602060405180830381600087803b158015611ec057600080fd5b505af1158015611ed4573d6000803e3d6000fd5b505050506040513d601f19601f82011682018060405250810190611ef8919061411a565b611f37576040517f08c379a0000000000000000000000000000000000000000000000000000000008152600401611f2e9061468e565b60405180910390fd5b6003600660003373ffffffffffffffffffffffffffffffffffffffff1673ffffffffffffffffffffffffffffffffffffffff168152602001908152602001600020819055506003600f6000828254611f8f919061424e565b92505081905550611fa0565b600080fd5b5b5b7fe1019936aff7a3e2724803ac783916de8fc5964c54baaebe0037180f974a10b433600f54604051611fd5929190614403565b60405180910390a1565b60076020528060005260406000206000915090505481565b60086020528060005260406000206000915090505481565b61202161201a612ac5565b8383612def565b5050565b60011515600460003373ffffffffffffffffffffffffffffffffffffffff1673ffffffffffffffffffffffffffffffffffffffff16815260200190815260200160002060009054906101000a900460ff161515146120b8576040517f08c379a00000000000000000000000000000000000000000000000000000000081526004016120af9061430b565b60405180910390fd5b66071afd498d00003414806120d3575066038d7ea4c6800034145b612112576040517f08c379a0000000000000000000000000000000000000000000000000000000008152600401612109906146fa565b60405180910390fd5b606060006121213360006104d7565b148015612134575066071afd498d000034145b156122e15760006121463360026104d7565b1461215057600080fd5b61216e30336000600160405180602001604052806000815250612f5c565b61218b303360018060405180602001604052806000815250612f5c565b6001600560003373ffffffffffffffffffffffffffffffffffffffff1673ffffffffffffffffffffffffffffffffffffffff16815260200190815260200160002060006001815260200190815260200160002060006101000a81548160ff0219169083151502179055506001600560003373ffffffffffffffffffffffffffffffffffffffff1673ffffffffffffffffffffffffffffffffffffffff16815260200190815260200160002060006002815260200190815260200160002060006101000a81548160ff0219169083151502179055506003600660003373ffffffffffffffffffffffffffffffffffffffff1673ffffffffffffffffffffffffffffffffffffffff168152602001908152602001600020819055506040518060400160405280600681526020017f53696c7665720000000000000000000000000000000000000000000000000000815250905061255c565b60006122ee3360006104d7565b148015612301575066038d7ea4c6800034145b156124275760006123133360026104d7565b1461231d57600080fd5b61233b30336000600160405180602001604052806000815250612f5c565b6001600560003373ffffffffffffffffffffffffffffffffffffffff1673ffffffffffffffffffffffffffffffffffffffff16815260200190815260200160002060006001815260200190815260200160002060006101000a81548160ff0219169083151502179055506005600660003373ffffffffffffffffffffffffffffffffffffffff1673ffffffffffffffffffffffffffffffffffffffff168152602001908152602001600020819055506040518060400160405280600481526020017f476f6c6400000000000000000000000000000000000000000000000000000000815250905061255b565b60006124343360016104d7565b148015612447575066038d7ea4c6800034145b1561255557612469303360018060405180602001604052806000815250612f5c565b6001600560003373ffffffffffffffffffffffffffffffffffffffff1673ffffffffffffffffffffffffffffffffffffffff16815260200190815260200160002060006002815260200190815260200160002060006101000a81548160ff0219169083151502179055506007600660003373ffffffffffffffffffffffffffffffffffffffff1673ffffffffffffffffffffffffffffffffffffffff168152602001908152602001600020819055506040518060400160405280600781526020017f4469616d6f6e6400000000000000000000000000000000000000000000000000815250905061255a565b600080fd5b5b5b603c42612569919061424e565b600860003373ffffffffffffffffffffffffffffffffffffffff1673ffffffffffffffffffffffffffffffffffffffff168152602001908152602001600020819055507fa5677540fbdce930b4217da004d4487e4853b6b0f705fdd572502fd026af57b633826040516125dd92919061471a565b60405180910390a150565b6000600160008473ffffffffffffffffffffffffffffffffffffffff1673ffffffffffffffffffffffffffffffffffffffff16815260200190815260200160002060008373ffffffffffffffffffffffffffffffffffffffff1673ffffffffffffffffffffffffffffffffffffffff16815260200190815260200160002060009054906101000a900460ff16905092915050565b60011515600460003373ffffffffffffffffffffffffffffffffffffffff1673ffffffffffffffffffffffffffffffffffffffff16815260200190815260200160002060009054906101000a900460ff1615151461270f576040517f08c379a00000000000000000000000000000000000000000000000000000000081526004016127069061430b565b60405180910390fd5b600760003373ffffffffffffffffffffffffffffffffffffffff1673ffffffffffffffffffffffffffffffffffffffff16815260200190815260200160002054421015612791576040517f08c379a0000000000000000000000000000000000000000000000000000000008152600401612788906147bc565b60405180910390fd5b600d60009054906101000a900473ffffffffffffffffffffffffffffffffffffffff1673ffffffffffffffffffffffffffffffffffffffff1663a9059cbb336009546040518363ffffffff167c010000000000000000000000000000000000000000000000000000000002815260040161280c929190614403565b602060405180830381600087803b15801561282657600080fd5b505af115801561283a573d6000803e3d6000fd5b505050506040513d601f19601f8201168201806040525081019061285e919061411a565b61289d576040517f08c379a000000000000000000000000000000000000000000000000000000000815260040161289490614828565b60405180910390fd5b6000600560003373ffffffffffffffffffffffffffffffffffffffff1673ffffffffffffffffffffffffffffffffffffffff168152602001908152602001600020600080815260200190815260200160002060006101000a81548160ff0219169083151502179055506000600460003373ffffffffffffffffffffffffffffffffffffffff1673ffffffffffffffffffffffffffffffffffffffff16815260200190815260200160002060006101000a81548160ff0219169083151502179055507f0e09410ed2c9b6db3c311d9a0249a36f2e16f781956d42502cf4a3635c10b6c03360405161298d91906142a4565b60405180910390a1565b61299f612ac5565b73ffffffffffffffffffffffffffffffffffffffff168573ffffffffffffffffffffffffffffffffffffffff1614806129e557506129e4856129df612ac5565b6125e8565b5b612a24576040517f08c379a0000000000000000000000000000000000000000000000000000000008152600401612a1b906144d2565b60405180910390fd5b612a318585858585612f5c565b5050505050565b6000808273ffffffffffffffffffffffffffffffffffffffff163b119050919050565b60007f01ffc9a7000000000000000000000000000000000000000000000000000000007bffffffffffffffffffffffffffffffffffffffffffffffffffffffff1916827bffffffffffffffffffffffffffffffffffffffffffffffffffffffff1916149050919050565b600033905090565b8151835114612b11576040517f08c379a0000000000000000000000000000000000000000000000000000000008152600401612b08906148ba565b60405180910390fd5b600073ffffffffffffffffffffffffffffffffffffffff168473ffffffffffffffffffffffffffffffffffffffff161415612b81576040517f08c379a0000000000000000000000000000000000000000000000000000000008152600401612b789061494c565b60405180910390fd5b6000612b8b612ac5565b9050612b9b8187878787876131f8565b60005b8451811015612d4c576000858281518110612bbc57612bbb614584565b5b602002602001015190506000858381518110612bdb57612bda614584565b5b60200260200101519050600080600084815260200190815260200160002060008b73ffffffffffffffffffffffffffffffffffffffff1673ffffffffffffffffffffffffffffffffffffffff16815260200190815260200160002054905081811015612c7c576040517f08c379a0000000000000000000000000000000000000000000000000000000008152600401612c73906149de565b60405180910390fd5b81810360008085815260200190815260200160002060008c73ffffffffffffffffffffffffffffffffffffffff1673ffffffffffffffffffffffffffffffffffffffff168152602001908152602001600020819055508160008085815260200190815260200160002060008b73ffffffffffffffffffffffffffffffffffffffff1673ffffffffffffffffffffffffffffffffffffffff1681526020019081526020016000206000828254612d31919061424e565b9250508190555050505080612d45906145b3565b9050612b9e565b508473ffffffffffffffffffffffffffffffffffffffff168673ffffffffffffffffffffffffffffffffffffffff168273ffffffffffffffffffffffffffffffffffffffff167f4a39dc06d4c0dbc64b70af90fd698a233a518aa5d07e595d983b8c0526c8f7fb8787604051612dc39291906149fe565b60405180910390a4612dd9818787878787613200565b612de7818787878787613208565b505050505050565b8173ffffffffffffffffffffffffffffffffffffffff168373ffffffffffffffffffffffffffffffffffffffff161415612e5e576040517f08c379a0000000000000000000000000000000000000000000000000000000008152600401612e5590614aa7565b60405180910390fd5b80600160008573ffffffffffffffffffffffffffffffffffffffff1673ffffffffffffffffffffffffffffffffffffffff16815260200190815260200160002060008473ffffffffffffffffffffffffffffffffffffffff1673ffffffffffffffffffffffffffffffffffffffff16815260200190815260200160002060006101000a81548160ff0219169083151502179055508173ffffffffffffffffffffffffffffffffffffffff168373ffffffffffffffffffffffffffffffffffffffff167f17307eab39ab6107e8899845ad3d59bd9653f200f220920489ca2b5937696c3183604051612f4f9190613872565b60405180910390a3505050565b600073ffffffffffffffffffffffffffffffffffffffff168473ffffffffffffffffffffffffffffffffffffffff161415612fcc576040517f08c379a0000000000000000000000000000000000000000000000000000000008152600401612fc39061494c565b60405180910390fd5b6000612fd6612ac5565b90506000612fe385613427565b90506000612ff085613427565b90506130008389898585896131f8565b600080600088815260200190815260200160002060008a73ffffffffffffffffffffffffffffffffffffffff1673ffffffffffffffffffffffffffffffffffffffff16815260200190815260200160002054905085811015613097576040517f08c379a000000000000000000000000000000000000000000000000000000000815260040161308e906149de565b60405180910390fd5b85810360008089815260200190815260200160002060008b73ffffffffffffffffffffffffffffffffffffffff1673ffffffffffffffffffffffffffffffffffffffff168152602001908152602001600020819055508560008089815260200190815260200160002060008a73ffffffffffffffffffffffffffffffffffffffff1673ffffffffffffffffffffffffffffffffffffffff168152602001908152602001600020600082825461314c919061424e565b925050819055508773ffffffffffffffffffffffffffffffffffffffff168973ffffffffffffffffffffffffffffffffffffffff168573ffffffffffffffffffffffffffffffffffffffff167fc3d58168c5ae7397731d063d5bbf3d657854427343f4c083240f7aacaa2d0f628a8a6040516131c9929190614ac7565b60405180910390a46131df848a8a86868a613200565b6131ed848a8a8a8a8a6134a1565b505050505050505050565b505050505050565b505050505050565b6132278473ffffffffffffffffffffffffffffffffffffffff16612a38565b1561341f578373ffffffffffffffffffffffffffffffffffffffff1663bc197c8187878686866040518663ffffffff167c0100000000000000000000000000000000000000000000000000000000028152600401613289959493929190614b45565b602060405180830381600087803b1580156132a357600080fd5b505af19250505080156132d457506040513d601f19601f820116820180604052508101906132d19190614bc2565b60015b61337a576132e0614c18565b806308c379a0141561333d57506132f5614c3a565b80613300575061333f565b806040517f08c379a00000000000000000000000000000000000000000000000000000000081526004016133349190613953565b60405180910390fd5b505b6040517f08c379a000000000000000000000000000000000000000000000000000000000815260040161337190614d42565b60405180910390fd5b63bc197c817c0100000000000000000000000000000000000000000000000000000000027bffffffffffffffffffffffffffffffffffffffffffffffffffffffff1916817bffffffffffffffffffffffffffffffffffffffffffffffffffffffff19161461341d576040517f08c379a000000000000000000000000000000000000000000000000000000000815260040161341490614dd4565b60405180910390fd5b505b505050505050565b60606000600167ffffffffffffffff811115613446576134456139a7565b5b6040519080825280602002602001820160405280156134745781602001602082028036833780820191505090505b509050828160008151811061348c5761348b614584565b5b60200260200101818152505080915050919050565b6134c08473ffffffffffffffffffffffffffffffffffffffff16612a38565b156136b8578373ffffffffffffffffffffffffffffffffffffffff1663f23a6e6187878686866040518663ffffffff167c0100000000000000000000000000000000000000000000000000000000028152600401613522959493929190614df4565b602060405180830381600087803b15801561353c57600080fd5b505af192505050801561356d57506040513d601f19601f8201168201806040525081019061356a9190614bc2565b60015b61361357613579614c18565b806308c379a014156135d6575061358e614c3a565b8061359957506135d8565b806040517f08c379a00000000000000000000000000000000000000000000000000000000081526004016135cd9190613953565b60405180910390fd5b505b6040517f08c379a000000000000000000000000000000000000000000000000000000000815260040161360a90614d42565b60405180910390fd5b63f23a6e617c0100000000000000000000000000000000000000000000000000000000027bffffffffffffffffffffffffffffffffffffffffffffffffffffffff1916817bffffffffffffffffffffffffffffffffffffffffffffffffffffffff1916146136b6576040517f08c379a00000000000000000000000000000000000000000000000000000000081526004016136ad90614dd4565b60405180910390fd5b505b505050505050565b6000604051905090565b600080fd5b600080fd5b600073ffffffffffffffffffffffffffffffffffffffff82169050919050565b60006136ff826136d4565b9050919050565b61370f816136f4565b811461371a57600080fd5b50565b60008135905061372c81613706565b92915050565b6000819050919050565b61374581613732565b811461375057600080fd5b50565b6000813590506137628161373c565b92915050565b6000806040838503121561377f5761377e6136ca565b5b600061378d8582860161371d565b925050602061379e85828601613753565b9150509250929050565b6137b181613732565b82525050565b60006020820190506137cc60008301846137a8565b92915050565b60007fffffffff0000000000000000000000000000000000000000000000000000000082169050919050565b613807816137d2565b811461381257600080fd5b50565b600081359050613824816137fe565b92915050565b6000602082840312156138405761383f6136ca565b5b600061384e84828501613815565b91505092915050565b60008115159050919050565b61386c81613857565b82525050565b60006020820190506138876000830184613863565b92915050565b6000602082840312156138a3576138a26136ca565b5b60006138b184828501613753565b91505092915050565b600081519050919050565b600082825260208201905092915050565b60005b838110156138f45780820151818401526020810190506138d9565b83811115613903576000848401525b50505050565b6000601f19601f8301169050919050565b6000613925826138ba565b61392f81856138c5565b935061393f8185602086016138d6565b61394881613909565b840191505092915050565b6000602082019050818103600083015261396d818461391a565b905092915050565b60006020828403121561398b5761398a6136ca565b5b60006139998482850161371d565b91505092915050565b600080fd5b7f4e487b7100000000000000000000000000000000000000000000000000000000600052604160045260246000fd5b6139df82613909565b810181811067ffffffffffffffff821117156139fe576139fd6139a7565b5b80604052505050565b6000613a116136c0565b9050613a1d82826139d6565b919050565b600067ffffffffffffffff821115613a3d57613a3c6139a7565b5b602082029050602081019050919050565b600080fd5b6000613a66613a6184613a22565b613a07565b90508083825260208201905060208402830185811115613a8957613a88613a4e565b5b835b81811015613ab25780613a9e8882613753565b845260208401935050602081019050613a8b565b5050509392505050565b600082601f830112613ad157613ad06139a2565b5b8135613ae1848260208601613a53565b91505092915050565b600080fd5b600067ffffffffffffffff821115613b0a57613b096139a7565b5b613b1382613909565b9050602081019050919050565b82818337600083830152505050565b6000613b42613b3d84613aef565b613a07565b905082815260208101848484011115613b5e57613b5d613aea565b5b613b69848285613b20565b509392505050565b600082601f830112613b8657613b856139a2565b5b8135613b96848260208601613b2f565b91505092915050565b600080600080600060a08688031215613bbb57613bba6136ca565b5b6000613bc98882890161371d565b9550506020613bda8882890161371d565b945050604086013567ffffffffffffffff811115613bfb57613bfa6136cf565b5b613c0788828901613abc565b935050606086013567ffffffffffffffff811115613c2857613c276136cf565b5b613c3488828901613abc565b925050608086013567ffffffffffffffff811115613c5557613c546136cf565b5b613c6188828901613b71565b9150509295509295909350565b600067ffffffffffffffff821115613c8957613c886139a7565b5b602082029050602081019050919050565b6000613cad613ca884613c6e565b613a07565b90508083825260208201905060208402830185811115613cd057613ccf613a4e565b5b835b81811015613cf95780613ce5888261371d565b845260208401935050602081019050613cd2565b5050509392505050565b600082601f830112613d1857613d176139a2565b5b8135613d28848260208601613c9a565b91505092915050565b60008060408385031215613d4857613d476136ca565b5b600083013567ffffffffffffffff811115613d6657613d656136cf565b5b613d7285828601613d03565b925050602083013567ffffffffffffffff811115613d9357613d926136cf565b5b613d9f85828601613abc565b9150509250929050565b600081519050919050565b600082825260208201905092915050565b6000819050602082019050919050565b613dde81613732565b82525050565b6000613df08383613dd5565b60208301905092915050565b6000602082019050919050565b6000613e1482613da9565b613e1e8185613db4565b9350613e2983613dc5565b8060005b83811015613e5a578151613e418882613de4565b9750613e4c83613dfc565b925050600181019050613e2d565b5085935050505092915050565b60006020820190508181036000830152613e818184613e09565b905092915050565b613e9281613857565b8114613e9d57600080fd5b50565b600081359050613eaf81613e89565b92915050565b60008060408385031215613ecc57613ecb6136ca565b5b6000613eda8582860161371d565b9250506020613eeb85828601613ea0565b9150509250929050565b60008060408385031215613f0c57613f0b6136ca565b5b6000613f1a8582860161371d565b9250506020613f2b8582860161371d565b9150509250929050565b600080600080600060a08688031215613f5157613f506136ca565b5b6000613f5f8882890161371d565b9550506020613f708882890161371d565b9450506040613f8188828901613753565b9350506060613f9288828901613753565b925050608086013567ffffffffffffffff811115613fb357613fb26136cf565b5b613fbf88828901613b71565b9150509295509295909350565b7f455243313135353a2061646472657373207a65726f206973206e6f742061207660008201527f616c6964206f776e657200000000000000000000000000000000000000000000602082015250565b6000614028602a836138c5565b915061403382613fcc565b604082019050919050565b600060208201905081810360008301526140578161401b565b9050919050565b7f4e487b7100000000000000000000000000000000000000000000000000000000600052602260045260246000fd5b600060028204905060018216806140a557607f821691505b602082108114156140b9576140b861405e565b5b50919050565b6140c8816136f4565b82525050565b60006060820190506140e360008301866140bf565b6140f060208301856140bf565b6140fd60408301846137a8565b949350505050565b60008151905061411481613e89565b92915050565b6000602082840312156141305761412f6136ca565b5b600061413e84828501614105565b91505092915050565b7f696e73756666696369656e742062616c616e6365206f7220617070726f76616c600082015250565b600061417d6020836138c5565b915061418882614147565b602082019050919050565b600060208201905081810360008301526141ac81614170565b9050919050565b7f75736520726541637469766174652066756e6374696f6e20696e737465616400600082015250565b60006141e9601f836138c5565b91506141f4826141b3565b602082019050919050565b60006020820190508181036000830152614218816141dc565b9050919050565b7f4e487b7100000000000000000000000000000000000000000000000000000000600052601160045260246000fd5b600061425982613732565b915061426483613732565b9250827fffffffffffffffffffffffffffffffffffffffffffffffffffffffffffffffff038211156142995761429861421f565b5b828201905092915050565b60006020820190506142b960008301846140bf565b92915050565b7f74616b6520746865204d656d6265727368697000000000000000000000000000600082015250565b60006142f56013836138c5565b9150614300826142bf565b602082019050919050565b60006020820190508181036000830152614324816142e8565b9050919050565b7f7761697420756e74696c206e65787420636c61696d2074696d65000000000000600082015250565b6000614361601a836138c5565b915061436c8261432b565b602082019050919050565b6000602082019050818103600083015261439081614354565b9050919050565b7f706c656173652063686172676520796f75722062617474657279000000000000600082015250565b60006143cd601a836138c5565b91506143d882614397565b602082019050919050565b600060208201905081810360008301526143fc816143c0565b9050919050565b600060408201905061441860008301856140bf565b61442560208301846137a8565b9392505050565b600061443782613732565b915061444283613732565b9250828210156144555761445461421f565b5b828203905092915050565b7f455243313135353a2063616c6c6572206973206e6f7420746f6b656e206f776e60008201527f6572206f7220617070726f766564000000000000000000000000000000000000602082015250565b60006144bc602e836138c5565b91506144c782614460565b604082019050919050565b600060208201905081810360008301526144eb816144af565b9050919050565b7f455243313135353a206163636f756e747320616e6420696473206c656e67746860008201527f206d69736d617463680000000000000000000000000000000000000000000000602082015250565b600061454e6029836138c5565b9150614559826144f2565b604082019050919050565b6000602082019050818103600083015261457d81614541565b9050919050565b7f4e487b7100000000000000000000000000000000000000000000000000000000600052603260045260246000fd5b60006145be82613732565b91507fffffffffffffffffffffffffffffffffffffffffffffffffffffffffffffffff8214156145f1576145f061421f565b5b600182019050919050565b7f7265717569726520746f20656d70747920796f75722062617474657279000000600082015250565b6000614632601d836138c5565b915061463d826145fc565b602082019050919050565b6000602082019050818103600083015261466181614625565b9050919050565b50565b60006146786000836138c5565b915061468382614668565b600082019050919050565b600060208201905081810360008301526146a78161466b565b9050919050565b7f696e70757420726967687420616d6f756e74206f662065746865720000000000600082015250565b60006146e4601b836138c5565b91506146ef826146ae565b602082019050919050565b60006020820190508181036000830152614713816146d7565b9050919050565b600060408201905061472f60008301856140bf565b8181036020830152614741818461391a565b90509392505050565b7f7374696c6c206e6f742070617373696e672074686520756e6c6f636b2074696d60008201527f6500000000000000000000000000000000000000000000000000000000000000602082015250565b60006147a66021836138c5565b91506147b18261474a565b604082019050919050565b600060208201905081810360008301526147d581614799565b9050919050565b7f636f6e7472616374206e6f2062616c616e636500000000000000000000000000600082015250565b60006148126013836138c5565b915061481d826147dc565b602082019050919050565b6000602082019050818103600083015261484181614805565b9050919050565b7f455243313135353a2069647320616e6420616d6f756e7473206c656e6774682060008201527f6d69736d61746368000000000000000000000000000000000000000000000000602082015250565b60006148a46028836138c5565b91506148af82614848565b604082019050919050565b600060208201905081810360008301526148d381614897565b9050919050565b7f455243313135353a207472616e7366657220746f20746865207a65726f20616460008201527f6472657373000000000000000000000000000000000000000000000000000000602082015250565b60006149366025836138c5565b9150614941826148da565b604082019050919050565b6000602082019050818103600083015261496581614929565b9050919050565b7f455243313135353a20696e73756666696369656e742062616c616e636520666f60008201527f72207472616e7366657200000000000000000000000000000000000000000000602082015250565b60006149c8602a836138c5565b91506149d38261496c565b604082019050919050565b600060208201905081810360008301526149f7816149bb565b9050919050565b60006040820190508181036000830152614a188185613e09565b90508181036020830152614a2c8184613e09565b90509392505050565b7f455243313135353a2073657474696e6720617070726f76616c2073746174757360008201527f20666f722073656c660000000000000000000000000000000000000000000000602082015250565b6000614a916029836138c5565b9150614a9c82614a35565b604082019050919050565b60006020820190508181036000830152614ac081614a84565b9050919050565b6000604082019050614adc60008301856137a8565b614ae960208301846137a8565b9392505050565b600081519050919050565b600082825260208201905092915050565b6000614b1782614af0565b614b218185614afb565b9350614b318185602086016138d6565b614b3a81613909565b840191505092915050565b600060a082019050614b5a60008301886140bf565b614b6760208301876140bf565b8181036040830152614b798186613e09565b90508181036060830152614b8d8185613e09565b90508181036080830152614ba18184614b0c565b90509695505050505050565b600081519050614bbc816137fe565b92915050565b600060208284031215614bd857614bd76136ca565b5b6000614be684828501614bad565b91505092915050565b60007c010000000000000000000000000000000000000000000000000000000082049050919050565b600060033d1115614c375760046000803e614c34600051614bef565b90505b90565b600060443d1015614c4a57614ccd565b614c526136c0565b60043d036004823e80513d602482011167ffffffffffffffff82111715614c7a575050614ccd565b808201805167ffffffffffffffff811115614c985750505050614ccd565b80602083010160043d038501811115614cb5575050505050614ccd565b614cc4826020018501866139d6565b82955050505050505b90565b7f455243313135353a207472616e7366657220746f206e6f6e2d4552433131353560008201527f526563656976657220696d706c656d656e746572000000000000000000000000602082015250565b6000614d2c6034836138c5565b9150614d3782614cd0565b604082019050919050565b60006020820190508181036000830152614d5b81614d1f565b9050919050565b7f455243313135353a204552433131353552656365697665722072656a6563746560008201527f6420746f6b656e73000000000000000000000000000000000000000000000000602082015250565b6000614dbe6028836138c5565b9150614dc982614d62565b604082019050919050565b60006020820190508181036000830152614ded81614db1565b9050919050565b600060a082019050614e0960008301886140bf565b614e1660208301876140bf565b614e2360408301866137a8565b614e3060608301856137a8565b8181036080830152614e428184614b0c565b9050969550505050505056fea26469706673582212200a31b45849f25a17b41c19584031dc56bbb24f5bdf87aabc48d06cadffc2ae9e64736f6c63430008090033",
  "immutableReferences": {},
  "source": "// SPDX-License-Identifier: MIT\npragma solidity ^0.8.9;\n\nimport \"@openzeppelin/contracts/token/ERC1155/ERC1155.sol\";\nimport \"@openzeppelin/contracts/token/ERC20/IERC20.sol\";\n\ninterface Burning {\n    function burning(uint256 _value) external returns (bool);\n}\n\ncontract Player is ERC1155 {\n    mapping(address => bool) public userActivatedOnced;\n    mapping(address => bool) public userActivated;\n    mapping(address => mapping(uint256 => bool)) public memberPlan;\n    mapping(address => uint256) public battery;\n    mapping(address => uint256) public unlockTime;\n    mapping(address => uint256) public nextclaimTime;\n    uint256 costValue = 2000 * 10 ** 18;\n    uint256 rewardSilver = 3 * 10 ** 18;\n    uint256 rewardGold = 5 * 10 ** 18;\n    uint256 rewardDiamond = 7 * 10 ** 18;\n    address payToken;\n    address rewardToken;\n    uint256 totalBurn;\n\n    event activation(address sender);\n    event reActivation(address sender);\n    event gettingMembership(address sender, string class);\n    event charged(address sender, uint256 burned);\n    event claimed(address sender, uint256 rewardClaimed);\n    event retrievingFund(address sender);\n\n    constructor(address _payToken, address _rewardToken) ERC1155(\"\") {\n        _mint(address(this), 0, 100, \"\");\n        _mint(address(this), 1, 100, \"\");\n        payToken = _payToken;\n        rewardToken = _rewardToken;\n    }\n\n    function activate() external {\n        require(\n            IERC20(payToken).transferFrom(msg.sender, address(this), costValue),\n            \"insufficient balance or approval\"\n        );\n        require(\n            userActivatedOnced[msg.sender] == false,\n            \"use reActivate function instead\"\n        );\n        userActivatedOnced[msg.sender] = true;\n        userActivated[msg.sender] = true;\n        memberPlan[msg.sender][0] = true;\n        unlockTime[msg.sender] = block.timestamp + 60;\n        battery[msg.sender] = 3;\n        nextclaimTime[msg.sender] = block.timestamp + 30;\n        emit activation(msg.sender);\n    }\n\n    function reActivate() external {\n        require(\n            IERC20(payToken).transferFrom(msg.sender, address(this), costValue),\n            \"insufficient balance or approval\"\n        );\n        userActivated[msg.sender] = true;\n        memberPlan[msg.sender][0] = true;\n        unlockTime[msg.sender] = block.timestamp + 30;\n        emit reActivation(msg.sender);\n    }\n\n    function getMembership() external payable {\n        require(userActivated[msg.sender] == true, \"take the Membership\");\n        require(\n            msg.value == 2 * 10 ** 15 || msg.value == 10 ** 15,\n            \"input right amount of ether\"\n        );\n        string memory class;\n        if (balanceOf(msg.sender, 0) == 0 && msg.value == 2 * 10 ** 15) {\n            require(balanceOf(msg.sender, 2) == 0);\n            _safeTransferFrom(address(this), msg.sender, 0, 1, \"\");\n            _safeTransferFrom(address(this), msg.sender, 1, 1, \"\");\n            memberPlan[msg.sender][1] = true;\n            memberPlan[msg.sender][2] = true;\n            battery[msg.sender] = 3;\n            class = \"Silver\";\n        } else if (balanceOf(msg.sender, 0) == 0 && msg.value == 10 ** 15) {\n            require(balanceOf(msg.sender, 2) == 0);\n            _safeTransferFrom(address(this), msg.sender, 0, 1, \"\");\n            memberPlan[msg.sender][1] = true;\n            battery[msg.sender] = 5;\n            class = \"Gold\";\n        } else if (balanceOf(msg.sender, 1) == 0 && msg.value == 10 ** 15) {\n            _safeTransferFrom(address(this), msg.sender, 1, 1, \"\");\n            memberPlan[msg.sender][2] = true;\n            battery[msg.sender] = 7;\n            class = \"Diamond\";\n        } else {\n            revert();\n        }\n        nextclaimTime[msg.sender] = block.timestamp + 60;\n        emit gettingMembership(msg.sender, class);\n    }\n\n    function reward() external {\n        require(userActivated[msg.sender] == true, \"take the Membership\");\n        require(\n            nextclaimTime[msg.sender] <= block.timestamp,\n            \"wait until next claim time\"\n        );\n        require(battery[msg.sender] > 0, \"please charge your battery\");\n        uint256 rward;\n        if (memberPlan[msg.sender][2] == true) {\n            IERC20(rewardToken).transfer(msg.sender, rewardDiamond);\n            rward = rewardDiamond;\n        } else if (memberPlan[msg.sender][1] == true) {\n            IERC20(rewardToken).transfer(msg.sender, rewardGold);\n            rward = rewardGold;\n        } else if (memberPlan[msg.sender][0] == true) {\n            IERC20(rewardToken).transfer(msg.sender, rewardSilver);\n            rward = rewardSilver;\n        } else {\n            revert();\n        }\n        battery[msg.sender] -= 1;\n        nextclaimTime[msg.sender] = block.timestamp + 60;\n        emit claimed(msg.sender, rward);\n    }\n\n    function charge() external {\n        require(userActivated[msg.sender] == true, \"take the Membership\");\n        require(battery[msg.sender] == 0, \"require to empty your battery\");\n        if (memberPlan[msg.sender][2] == true) {\n            require(\n                IERC20(rewardToken).transferFrom(\n                    msg.sender,\n                    address(this),\n                    rewardDiamond\n                ),\n                \"insufficient balance or approval\"\n            );\n            require(Burning(rewardToken).burning(rewardDiamond), \"\");\n            battery[msg.sender] = 7;\n            totalBurn += 7;\n        } else if (memberPlan[msg.sender][1] == true) {\n            require(\n                IERC20(rewardToken).transferFrom(\n                    msg.sender,\n                    address(this),\n                    rewardGold\n                ),\n                \"insufficient balance or approval\"\n            );\n            require(Burning(rewardToken).burning(rewardGold), \"\");\n            battery[msg.sender] = 5;\n            totalBurn += 5;\n        } else if (memberPlan[msg.sender][0] == true) {\n            require(\n                IERC20(rewardToken).transferFrom(\n                    msg.sender,\n                    address(this),\n                    rewardSilver\n                ),\n                \"insufficient balance or approval\"\n            );\n            require(Burning(rewardToken).burning(rewardSilver), \"\");\n            battery[msg.sender] = 3;\n            totalBurn += 3;\n        } else {\n            revert();\n        }\n        emit charged(msg.sender, totalBurn);\n    }\n\n    function retrieveFund() external {\n        require(userActivated[msg.sender] == true, \"take the Membership\");\n        require(\n            block.timestamp >= unlockTime[msg.sender],\n            \"still not passing the unlock time\"\n        );\n        require(\n            IERC20(payToken).transfer(msg.sender, costValue),\n            \"contract no balance\"\n        );\n        memberPlan[msg.sender][0] = false;\n        userActivated[msg.sender] = false;\n        emit retrievingFund(msg.sender);\n    }\n}\n",
  "sourcePath": "/home/ravi/rideShare/blockchain/contracts/Player.sol",
  "compiler": {
    "name": "solc",
    "version": "0.8.9+commit.e5eed63a.Emscripten.clang"
  },
  "schemaVersion": "3.4.9",
  "updatedAt": "2023-09-28T12:00:32.381Z",
  "networkType": "ethereum",
  "devdoc": {
    "kind": "dev",
    "methods": {
      "balanceOf(address,uint256)": {
        "details": "See {IERC1155-balanceOf}. Requirements: - `account` cannot be the zero address."
      },
      "balanceOfBatch(address[],uint256[])": {
        "details": "See {IERC1155-balanceOfBatch}. Requirements: - `accounts` and `ids` must have the same length."
      },
      "isApprovedForAll(address,address)": {
        "details": "See {IERC1155-isApprovedForAll}."
      },
      "safeBatchTransferFrom(address,address,uint256[],uint256[],bytes)": {
        "details": "See {IERC1155-safeBatchTransferFrom}."
      },
      "safeTransferFrom(address,address,uint256,uint256,bytes)": {
        "details": "See {IERC1155-safeTransferFrom}."
      },
      "setApprovalForAll(address,bool)": {
        "details": "See {IERC1155-setApprovalForAll}."
      },
      "supportsInterface(bytes4)": {
        "details": "See {IERC165-supportsInterface}."
      },
      "uri(uint256)": {
        "details": "See {IERC1155MetadataURI-uri}. This implementation returns the same URI for *all* token types. It relies on the token type ID substitution mechanism https://eips.ethereum.org/EIPS/eip-1155#metadata[defined in the EIP]. Clients calling this function must replace the `\\{id\\}` substring with the actual token type ID."
      }
    },
    "version": 1
  },
  "userdoc": {
    "kind": "user",
    "methods": {},
    "version": 1
  }
}